{
	"data": {
		"bytecode": {
			"linkReferences": {},
			"object": "6080604052348015600e575f80fd5b506101468061001c5f395ff3fe608060405234801561000f575f80fd5b5060043610610029575f3560e01c8063feaf968c1461002d575b5f80fd5b61003561004f565b6040516100469594939291906100bf565b60405180910390f35b5f805f805f8060645f805f945094509450945094509091929394565b5f69ffffffffffffffffffff82169050919050565b6100898161006b565b82525050565b5f819050919050565b6100a18161008f565b82525050565b5f819050919050565b6100b9816100a7565b82525050565b5f60a0820190506100d25f830188610080565b6100df6020830187610098565b6100ec60408301866100b0565b6100f960608301856100b0565b6101066080830184610080565b969550505050505056fea2646970667358221220267b872aea19970fe9eda702c311c99287cacbba75972e8dc735b40fbb26cdc064736f6c634300081a0033",
			"opcodes": "PUSH1 0x80 PUSH1 0x40 MSTORE CALLVALUE DUP1 ISZERO PUSH1 0xE JUMPI PUSH0 DUP1 REVERT JUMPDEST POP PUSH2 0x146 DUP1 PUSH2 0x1C PUSH0 CODECOPY PUSH0 RETURN INVALID PUSH1 0x80 PUSH1 0x40 MSTORE CALLVALUE DUP1 ISZERO PUSH2 0xF JUMPI PUSH0 DUP1 REVERT JUMPDEST POP PUSH1 0x4 CALLDATASIZE LT PUSH2 0x29 JUMPI PUSH0 CALLDATALOAD PUSH1 0xE0 SHR DUP1 PUSH4 0xFEAF968C EQ PUSH2 0x2D JUMPI JUMPDEST PUSH0 DUP1 REVERT JUMPDEST PUSH2 0x35 PUSH2 0x4F JUMP JUMPDEST PUSH1 0x40 MLOAD PUSH2 0x46 SWAP6 SWAP5 SWAP4 SWAP3 SWAP2 SWAP1 PUSH2 0xBF JUMP JUMPDEST PUSH1 0x40 MLOAD DUP1 SWAP2 SUB SWAP1 RETURN JUMPDEST PUSH0 DUP1 PUSH0 DUP1 PUSH0 DUP1 PUSH1 0x64 PUSH0 DUP1 PUSH0 SWAP5 POP SWAP5 POP SWAP5 POP SWAP5 POP SWAP5 POP SWAP1 SWAP2 SWAP3 SWAP4 SWAP5 JUMP JUMPDEST PUSH0 PUSH10 0xFFFFFFFFFFFFFFFFFFFF DUP3 AND SWAP1 POP SWAP2 SWAP1 POP JUMP JUMPDEST PUSH2 0x89 DUP2 PUSH2 0x6B JUMP JUMPDEST DUP3 MSTORE POP POP JUMP JUMPDEST PUSH0 DUP2 SWAP1 POP SWAP2 SWAP1 POP JUMP JUMPDEST PUSH2 0xA1 DUP2 PUSH2 0x8F JUMP JUMPDEST DUP3 MSTORE POP POP JUMP JUMPDEST PUSH0 DUP2 SWAP1 POP SWAP2 SWAP1 POP JUMP JUMPDEST PUSH2 0xB9 DUP2 PUSH2 0xA7 JUMP JUMPDEST DUP3 MSTORE POP POP JUMP JUMPDEST PUSH0 PUSH1 0xA0 DUP3 ADD SWAP1 POP PUSH2 0xD2 PUSH0 DUP4 ADD DUP9 PUSH2 0x80 JUMP JUMPDEST PUSH2 0xDF PUSH1 0x20 DUP4 ADD DUP8 PUSH2 0x98 JUMP JUMPDEST PUSH2 0xEC PUSH1 0x40 DUP4 ADD DUP7 PUSH2 0xB0 JUMP JUMPDEST PUSH2 0xF9 PUSH1 0x60 DUP4 ADD DUP6 PUSH2 0xB0 JUMP JUMPDEST PUSH2 0x106 PUSH1 0x80 DUP4 ADD DUP5 PUSH2 0x80 JUMP JUMPDEST SWAP7 SWAP6 POP POP POP POP POP POP JUMP INVALID LOG2 PUSH5 0x6970667358 0x22 SLT KECCAK256 0x26 PUSH28 0x872AEA19970FE9EDA702C311C99287CACBBA75972E8DC735B40FBB26 0xCD 0xC0 PUSH5 0x736F6C6343 STOP ADDMOD BYTE STOP CALLER "
		},
		"gasEstimates": {
			"creation": {
				"codeDepositCost": "65200",
				"executionCost": "115",
				"totalCost": "65315"
			},
			"external": {
				"latestRoundData()": "infinite"
			}
		},
		"methodIdentifiers": {
			"latestRoundData()": "feaf968c"
		}
	},
	"abi": [
		{
			"inputs": [],
			"name": "latestRoundData",
			"outputs": [
				{
					"internalType": "uint80",
					"name": "roundId",
					"type": "uint80"
				},
				{
					"internalType": "int256",
					"name": "answer",
					"type": "int256"
				},
				{
					"internalType": "uint256",
					"name": "startedAt",
					"type": "uint256"
				},
				{
					"internalType": "uint256",
					"name": "updatedAt",
					"type": "uint256"
				},
				{
					"internalType": "uint80",
					"name": "answeredInRound",
					"type": "uint80"
				}
			],
			"stateMutability": "view",
			"type": "function"
		}
	]
}